:100000000C9433040C946B040C946B040C946B04EC
:100010000C946B040C946B040C946B040C946B04A4
:100020000C946B040C946B040C94E71C0C94291C2A
:100030000C94A31E0C946B040C946B040C946B0432
:100040000C946B040C946B040C946B040C946B0474
:100050000C946B040C94561E0C946B040C946B045F
:100060000C946B040C946B040C946B040C946B0454
:100070000C946B040C946B040C946B040C946B0444
:100080000C946B040C946B040C946B040C946B0434
:100090000C946B040C946B040C946B040C946B0424
:1000A0000C946B040C946B040C946B04F306F9062B
:1000B000E706ED06FF0605070B076807DC07700774
:1000C0003A073E0774074107770782074C07D207B4
:1000D0005007860754078A07B40758078E07BE07DC
:1000E0005E0794079E0745077B0748077E0763075F
:1000F0009907AA07CA07CC0736076C07E507AD08BA
:10010000AD08E008E00875099309A80AA80A98094B
:100110000C0A1D0A1D0A7C1092109910B011B01122
:10012000D110E210F51041114611B011B011B0110B
:100130004E11351A5C1A111C5C1A111CA81ACB1A24
:10014000111CCC1BDC1BFD377A585A000004E6D684
:10015000B4460200210116000000742FE5A3E00759
:10016000CD01ED5D003D8889A654750A36E182AE69
:10017000FA7A1AA6FCA2ED4954B48A5E7177BBD014
:100180005590EE61545AF8F59C5178FA74E8513E56
:10019000CDDF186887AC6F89A60B1D4F28F0D657A6
:1001A0006783E846E45DCF38F519B13547135D3113
:1001B0005D6906B56FA51EFA13B38BDDA17BDE95D5
:1001C0007BBEBE5A4C3F512255768AC1DC5B44B49B
:1001D00066A6979C620EEAF2A7877672844EB800F4
:1001E0005DE03EDFD516B93A1F96DAA20311E1842D
:1001F000E383AD8407B9E9828AE8D522054A9A7B70
:10020000903C0D6C31B889332615AB46F2F37CC9AE
:10021000F3352F6292B04AA781266B4542DDCC4070
:10022000329E377E9979A137F2FB483F149628A475
:10023000D8C51D1DA6E40555D46E4E74320B75A7A6
:100240004696A63319A9A0667372A3A3357DF36EF3
:10025000798E42AACB86A6AF33EF23395647C646DE
:100260005A47B92B51F58A28B52DC04B4447F85D44
:100270002747AA24468C89EA431BFBAA7502E79408
:10028000DE058BD8065F55EC072D3D9807FA6DCB40
:100290006A57CD1524B8E6C2EAC8FF06B2FAD4966A
:1002A00026E8EF80D8A33F978F0468DEDF90BE205A
:1002B000BB23FE7BE1B164DA07C7DB13160D286EA2
:1002C0002A5E3E9A58C44E4745DD81EE0F91E211F9
:1002D0006CED6B2503C450EDF45B83C11B98958CCA
:1002E0007593C5EE73AA7DC17A88831E7FE474F48A
:1002F0008866B663E1D183A8DF88E0308C9C6F47C5
:10030000B3D3A455DBCEF7B2F64322CA60A92DAE13
:10031000045AE8186BEDF3BD06F364986CFF93D2B2
:1003200076EBC0404AD1DC423E4058E3C93B8A11DB
:10033000BE63D83B557EF31DD7C92BAB14DE4E7E72
:10034000B1044960DE1908AF159275F9F30C1B046E
:100350001B00000000003FEF68EEFD9ABE55000153
:100360008904CE0F000005E9A492B1C467FB020026
:1003700000000004595A05010902A1018502090182
:10038000A100050919012908150025019508750125
:1003900081020501093009311581257F9502750813
:1003A000810609381581257F950175088106050CA0
:1003B0000A38021581257F950175088106C0C005A0
:1003C000010980A101850319012AB700150126B78B
:1003D00000950175108100C0050C0901A10185047B
:1003E00019012AA002150126A002950175108100AD
:1003F000C00660FF0961A1010962150026FF009592
:1004000020750881020963150026FF0095207508F4
:100410009102C005010906A101050719E029E715A8
:100420000025019508750181029501750881010576
:1004300007190029FF150026FF00950675088100A1
:1004400005081901290595057501910295017503A6
:100450009101C009025B00030100A0FA0904000039
:1004600001030101000921110100012240000705DB
:1004700081030800010904010002030000000921B2
:100480001101000122220007058203200001070557
:1004900003032000010904020001030000000921F8
:1004A00011010001227B00070584032000011201D5
:1004B000000200000008534D050001000102030185
:1004C0001C037600690061006C003A00660036008B
:1004D0003400630032006200330063000000100348
:1004E000450063006C006900700073006500000047
:1004F00018034D006500630068002000530074007D
:100500007500640069006F00000004030904000026
:1005100000000000000000000000000000000000DB
:1005200000000000000000000000000000000000CB
:1005300000007E0F00D4FFFFFFC70000007800001E
:100540000000000000002A2B28000000000000002E
:1005500000000000000000000029000000002C1E28
:100560003420212224342627252E362D3738271EE5
:100570001F202122232425263333362E37381F040B
:1005800005060708090A0B0C0D0E0F1011121314A3
:1005900015161718191A1B1C1D2F3130232D350461
:1005A00005060708090A0B0C0D0E0F101112131483
:1005B00015161718191A1B1C1D2F3130354C290020
:1005C0001E001F002000210022002300240025001F
:1005D000260027002D002E002A0049004A004B006B
:1005E0002B0014001A000800150017001C0018004A
:1005F0000C00120013002F00300031004C004D00A1
:100600004E00390004001600070009000A000B0024
:100610000D000E000F0033003400320028004C00A3
:1006200000000000E10064001D001B00060019002E
:10063000050011001000360037003800E500215297
:10064000000052000000E000E300E20000002C0087
:100650002C0000002C000000E600E7002152000002
:10066000E400500051004F00007C01000100010037
:100670000100010001000100010001000100010072
:100680000100010001000100010001000100010062
:100690000100010001000100010001000100010052
:1006A0000100010001000100010001000100010042
:1006B0000100010001000100010001000100010032
:1006C0000100010001000100010000000000010024
:1006D0000100010001000100010001000100010012
:1006E0000100010001000100010000000100000004
:1006F0000078017801000000010001000000010005
:1007000000000100010001000000010001000100E3
:1007100001000100010001000100010001000100D1
:1007200001000100010001000100010001000100C1
:1007300001000100010001000100010001000100B1
:1007400001000100010001000100010001000100A1
:100750000100010001000100010001000100010091
:100760000100010001000100010001000100010081
:100770000100010000000000010001000100010073
:100780000100010001000100010001000100010061
:100790000100010000000100000001000100010053
:1007A0000000010001000000010000000100010044
:1007B0000100000001000100010001000100010032
:1007C0000100010001000100010001000100010021
:1007D0000100010001000100010001000100010011
:1007E0000100010001000100010001000100010001
:1007F00001000100010001000100010001000100F1
:1008000001000100010001000100010001000100E0
:1008100001000100010001000100010001000000D1
:1008200000000100010001000100010001000100C1
:1008300001000100010001000100010001000000B1
:1008400001000000010001000100000001000100A2
:100850000000010000000100010001000000010093
:1008600001000100010011241FBECFEFDAE0DEBF5E
:10087000CDBF04B603FE18C08091110390911203FE
:10088000A0911303B09114038730904BA740B04B55
:1008900059F4109211031092120310921303109244
:1008A0001403E0E0F8E3099511E0A0E0B1E0EAE02C
:1008B000F0E502C005900D92A037B107D9F723E00B
:1008C000A0E7B1E001C01D92A131B207E1F70E949B
:1008D0001E0B0C9403280C940000ACE0B0E0E3E79E
:1008E000F4E00C94A427FC018481882309F4A2C6B7
:1008F0007F0121E0408151816281738195810E9455
:100900001E258C01D70115962C90222009F4D7C002
:1009100097578038910508F0B8C0003108F0A4C39B
:100920008FEF93E00E94292781119EC331E2A32E0D
:1009300033E0B32E002379F0A114B4E0BB0609F430
:1009400093C3C5010E942927811101C00150EFEF17
:10095000AE1ABE0AEFCF19821A821B821C82CC24E7
:10096000CA9485010F5F1F4FC5010E942927898303
:100970001A82882309F478C3813009F081C04501C7
:10098000F2E08F0E911CC8010E942927582E8A83FD
:10099000882309F469C38FEF850D833050F40E5F0F
:1009A0001F4FC4010E9429278B83811169C0580100
:1009B000D8CF8BEF850D8330A8F5350123E0620E8B
:1009C000711CC4010E9429278B83811102C08301FD
:1009D000EECF85010C5F1F4FC3010E9429278C8336
:1009E000882329F38B819C8181303FEF930718F096
:1009F000D82EB12C02C0B82ED92E46E0541641F0A4
:100A000057E0551651F08B2D9D2D0E94062205C0F2
:100A10008B2D9D2D0E940622CACF8B2D9D2D0E94CD
:100A2000CC21C5CF84E0581611F08401C0CFC40199
:100A30000E942927D82E85010C5F1F4FC501039600
:100A40000E942927DD2009F40FC3882309F40CC371
:100A5000282F30E021503109C29EA001C39E500DC5
:100A600011248D2D90E00197840F951F019708F4B4
:100A70009ECFAFE9BFE01197F1F700C00000F6CFBD
:100A8000CE0101960E94A61892CF0E35ECE71E0704
:100A900061F00F35FCE71F0761F00D352CE71207F9
:100AA00071F480910001811104C081E08093000104
:100AB000DBC21092000180E00E940420D5C2809128
:100AC000000181110BC0F801E851FC47E730F10546
:100AD00008F0AAC1EA5AFF4F0C949727480130EE5C
:100AE000831A910830900E028091FE01382A80917D
:100AF0000B02382A48E08416910480F4980127708C
:100B0000332781E090E001C0880F2A95EAF7222080
:100B100011F0382A18C08095382215C0222009F417
:100B200016C110937301009372010E948B1E609393
:100B3000CA027093CB028093CC029093CD021092A4
:100B4000D2021092D102D7018D919C910E946C2209
:100B500021E030E0F90102C0EE0FFF1F8A95E2F7B5
:100B6000FC87EB872091D3023091D40238872F8302
:100B700040917201509173015A8749871D82422C1E
:100B8000512C5D81E52FF0E0EE0FFF1FEA5CFD4F79
:100B9000C080D180C114D10409F4F0C0311005C067
:100BA000D60112968C918111CEC0F601838190E01E
:100BB0002B853C8582239323892B09F4C4C080852F
:100BC000982F977009F487E038E08316910440F479
:100BD000222019F081FD09C0B6C082FD06C0B3C055
:100BE000222009F4B0C080FFAEC0D601AD90BC9009
:100BF0000A151B0519F4222009F4A5C0EF81F88518
:100C0000CE16DF0609F49FC0D6011D96ED91FC912A
:100C10001E97309721F08081882309F494C0632DBA
:100C2000C6010E947320882309F48DC00A151B0594
:100C300011F4320102C0612C712CB62DB170BE834B
:100C400081E0A114B10441F0B11106C0E985FA8533
:100C5000AE16BF0609F080E080FF75C080E00E94FC
:100C60000420D092D402C092D30281E08093D002BB
:100C7000D60115968C918093CE02BE81B11113C01E
:100C8000AB2889F0F601808191819C0124503109C3
:100C9000213A310530F4682F8BE292E00E94CC1E9D
:100CA00002C00E945E24D6011696AD90BC901797A4
:100CB000C5019A9581159F4110F4E0EEBE2255249E
:100CC0005394C50101978F339E4708F0512CD601EC
:100CD0001996ED91FC911A97309739F01B966D910A
:100CE0007C911C9781E009955822552029F1F60145
:100CF000868197810E9415268093CF02C501F8E076
:100D00008F16910418F40E94B31F16C00497813AFD
:100D1000910530F46A2D8BE292E00E94D91E0EC03C
:100D20000E943A158FE39CE90197F1F700C000009B
:100D30008A2D0E94942402C00E943A1591E06926EF
:100D400060FE6CC1C0CEAD81AF5FAD831ACF809124
:100D50007201909173010817190781F410927301C1
:100D6000109272011092CA021092CB021092CC0221
:100D70001092CD021092D2021092D1028091D30231
:100D80009091D402009709F49ECEB8E08B1691049E
:100D900038F4632D0E947320811195CE81E014C038
:100DA000FC01208131810217130729F4211006C0AC
:100DB0001092D00208C0222009F485CEDC011896DA
:100DC0008C9185FD80CE80E00E9404207CCE06E2DE
:100DD00021EE41EE6AE17CE723C007E225EE45EE15
:100DE0006BE17CE71DC006E221EE40EE68E17CE7A6
:100DF00017C007E225EE44EE69E17CE711C006E288
:100E000021EE42EE6CE17CE70BC007E225EE46EEF8
:100E10006DE17CE705C008E221E045EE6EE17CE78C
:100E2000C7010E944A1F20C1F7018581882309F468
:100E300030C11092D702C8019057839708F0DBC0E9
:100E400084E090E00E94312790938C0180938B0185
:100E5000F801E150F047E232F10520F4E35AFF4F88
:100E60000C94972780918B018160ACC080918C019C
:100E70008860B4C080918B018260A4C080918B0196
:100E800020C080918B0188609DC080918C011EC024
:100E900080918C018260A2C080918B01806192C0A0
:100EA00080918B0180628EC080918B0180648AC0AA
:100EB0000E94392380918B01806884C080918B01CE
:100EC000886084607FC080918C018260816086C070
:100ED00080918B018E7F76C080918C01877F7EC050
:100EE00080918B018D7F6EC080918B0120C080919D
:100EF0008B01877F67C080918C011EC080918C011F
:100F00008D7F6CC080918B018F7E5CC080918B0146
:100F10008F7D58C080918B018F7B54C00E943923F4
:100F200080918B018F774EC080918B01877F8B7F63
:100F300049C080918C018D7F8E7F50C080918B0144
:100F400082FB222720F991E0922790FB82F990FB07
:100F500083F938C080918C01982F909591708E7F85
:100F6000892B90FB81F93AC080918B0186FB222767
:100F700020F991E0922790FB86F924C00E94392342
:100F800080918B0187FB222720F991E0922790FB2B
:100F900087F918C061E001C060E08EE090E00E9437
:100FA00047271EC080918B0184FB222720F991E006
:100FB000922790FB84F906C080918B01982F909521
:100FC00090FB80F980938B010BC080918C0183FB97
:100FD000222720F991E0922790FB83F980938C01DE
:100FE00060918B0170918C0184E090E00E946527F4
:100FF0000E94392339C00631BCE71B0791F4809168
:101000000B028A7A91E009F490E0909374018111C7
:101010003EC069E28BE292E00E94D91E0E943A151E
:1010200023C00737FCE71F0709F4F3C208372CE792
:10103000120709F4F6C20330FCE71F0709F4D4C213
:1010400008F0C4C201153CE7130709F0BAC20E94B8
:101050003923AFEFB4E3ECE0A150B040E040E1F75A
:1010600000C000000E94321E80910102877009F4C6
:10107000E1C2D70115968C91882309F4DBC28091D7
:101080008C0182FFD7C282E00E949915D3C265E32A
:10109000C1CF0631ECE71E0709F487C20737FCE72A
:1010A0001F0709F4B8C208372CE7120709F4B5C2C4
:1010B000D70115968C9115970D911C91882349F0B5
:1010C000C8010E943022D82E682FC8010E94A02299
:1010D00004C0C8010E946C22D82EB8018D2D0E9438
:1010E000B5130E94D213C82E192FA82EF70105811F
:1010F000D680D2949FE0D922809101028770E9F0D6
:101100000023D9F0812F807F803451F080E28C0D54
:10111000883098F0D11004C0812F807E803269F031
:1011200080918C0182FF09C082E00E949915809114
:1011300001028770BB24B3948111B12C912E92943B
:101140008FE09822892D90E08C30910508F000C244
:10115000FC01E158FF4F0C949727812F807F1F706F
:10116000882311F01295107F0023B9F0112309F4A0
:10117000DCC180E28C0D883010F0A11006C0909187
:101180000B02192B10930B0205C090910A02192B28
:1011900010930A020E943A15C8C18C2D0E945E2449
:1011A000112309F4D5C180E28C0D883088F1AA2082
:1011B00079F1109590910A02192310930A022BC01D
:1011C000812F807F1F70803211F01295107F8C2D3F
:1011D000AA2029F0F1E0AF1609F462C06DC0809139
:1011E0008C0182FD1BC0002369F0112339F090911E
:1011F0000B02192B10930B020E943A1580E00E94FB
:101200009424A6C180E00E945E24112309F4A0C1A9
:10121000812F0E9433150E943A159AC1002361F173
:10122000DD2009F44DC021E0D21212C080910E02DF
:101230008123181709F48CC10E94971E90930D0208
:1012400080930C0290910E02192B10930E0280C114
:1012500035E0D3127DC1812F0E947C23812F0E9413
:101260001E159091FE01812F8923181709F470C172
:10127000192B1093FE016CC1DD2041F041E0D41226
:1012800067C180910B02812309F462C1812F0E9402
:101290007523812F0E941E15812F0E94DE1558C1D3
:1012A000002329F055E05D1508F452C109C084E01F
:1012B0008D1508F44DC115C0002331F0D11035C192
:1012C000812F0E947C2344C1DD2059F0893309F02D
:1012D0003CC19FEFA7EEB3E09150A040B040E1F7D2
:1012E00032C1812F0E94752333C1812F8695869547
:1012F000837019F0813061F02BC1002321F08C2D17
:10130000912F937002C080E090E00E94181F28C1C6
:10131000002321F08C2D912F937002C080E090E08B
:101320000E94F31E1DC1602F8C2D0E94862318C1C0
:10133000812F8370A9F501110FC14C2D429546955F
:101340004770440F440F8C2D8F7090E09C01042E49
:1013500001C0220F0A94EAF7C4FE08C08FE090E0B3
:1013600001C0880F4A95EAF7809501C080E0169584
:1013700016951370123069F088F49091890111303C
:1013800019F0822B892302C0922B892B0E941323F0
:10139000E3C0822B909189018927F8CF822BF6CF69
:1013A000002319F0812F817001C08695882309F4EC
:1013B000D3C04C2D429546954770440F440F8C2D59
:1013C0008F7090E09C01042E01C0220F0A94EAF76E
:1013D000C4FE08C08FE090E001C0880F4A95EAF78C
:1013E000809501C080E0169516951370123059F063
:1013F00078F490918A01113019F0822B892309C069
:10140000922B892B06C0822B90918A01892701C0DB
:10141000822B0E94D522A0C01F70002339F0812F9B
:101420000E9407238C2D0E947C2396C08C2D0E9445
:101430007523812F0E94FA228FC08C2DE2EFAE1609
:1014400091F1EA1538F0F0EFAF1659F021EFA2163E
:1014500019F166C033EFA31669F144EFA416C1F089
:101460005FC0002381F054E05D1508F471C01F7166
:1014700081E090E0012E01C0880F0A94EAF7909174
:101480008A01892722C085E08D1508F461C0EFCF5D
:1014900080918C0182FD1CC0002339F0812F8F7157
:1014A0000E94072355C00023C9F3812F8F710E942A
:1014B000FA224EC0002341F01F7181E0012E01C0CD
:1014C000880F0A94EAF701C080E00E94D52240C04C
:1014D0000023B9F0809101028770843039F40E94B2
:1014E0009215812F8F710E94FA225DC094E09D15A4
:1014F00008F459C01F71812F0E94072363E0812FD8
:1015000008C0A4E0AD1540F40E94921564E0812F5C
:101510008F710E94C71547C081E00E94991543C092
:10152000002329F0DD2009F4B9CF8C2D68CEDD2011
:1015300009F4BBCF893349F4BFEFE7EEF3E0B150D4
:10154000E040F040E1F700C000008C2D0E945E24D6
:1015500088EF890D843020F40E943D1F0E940D25E4
:10156000BB20B1F08091010280FD12C0D701159619
:101570001C928695869586950E940723C7010E9436
:101580006D04809101028695869586950E94FA22C7
:1015900020E0F701408151816281738184819581CE
:1015A0000E941E2547C0B12CD7CF809174018111B4
:1015B00006C069E28BE292E00E94CC1E2FCD65E36B
:1015C000F9CF01304CE71407A9F072CD0B355CE779
:1015D0001507D9F00C358CE7180779F00A351C4748
:1015E00009F066CD81E012C06FEF7FEF80E090E000
:1015F0000E9465270E94FF2537CD80918C0182FBD8
:10160000882780F991E0892701C080E00E94B01509
:101610004FCD81E007C081E001C082E00E94FA2244
:1016200003C082E00E94072343E062E081E00E9461
:10163000D8221ACD2C96E2E10C94C027A6E3B0E0A4
:10164000E4E2FBE00C94A42785B7806885BF85B7EA
:10165000806885BF84B7877F84BF0FB6F894A8954C
:1016600080916000886180936000109260000FBEDE
:1016700090E080E80FB6F894809361009093610049
:101680000FBE80EE91E190937101809370010E94F2
:1016900058210E946D1C0E948C1C8091E200846085
:1016A0008093E2007894809121028823A1F0109128
:1016B000E9001F709091EC00892F817090FD80E807
:1016C000182B1092E9008091E80083FD0E945219C6
:1016D0001F701093E90082E084BD93E095BD9AEFFE
:1016E00097BD80936E000E948B26811102C00E94DC
:1016F0007B2602E111E047E1E42E41E0F42ED8011F
:101700008D918D018F3F11F00E94E112E016F106DC
:10171000B1F707E111E038E2E32E31E0F32EF801F2
:1017200081918F018F3F11F00E94E112E016F106C6
:10173000B1F784E1E7EAF1E0DF01282F1D922A9555
:10174000E9F7E5E7F1E0DF011D928A95E9F780E02E
:1017500090E00E943127863E9E4F21F40E948B2606
:10176000811167C066EE7EEF80E090E00E94652701
:1017700060E082E090E00E94472760E083E090E034
:101780000E9447271092890160E074E184E090E0B4
:101790000E94652760E086E090E00E9447276FEF97
:1017A00087E090E00E94472740E050E0BA0188E0DF
:1017B00090E00E94592760E084E290E00E94472771
:1017C00060E087E190E00E94472760E08CE090E0D5
:1017D0000E94472760E08DE090E00E944727198231
:1017E0001A821B821C821D821E821F82188648E07C
:1017F00050E068E170E0CE0101960E94372740E09A
:1018000050E0BA0180E290E00E94592780E00E94F7
:101810005C260E947B2640E050E0BA018FE090E019
:101820000E94592740E050E0BA0183E190E00E9415
:10183000592782E090E00E94292780938D0184E05F
:1018400090E00E94312790938C0180938B010E943D
:10185000F812EFEFF6E721E0E150F0402040E1F729
:1018600000C000000E94F8128091A70180FF08C00C
:101870006FEF7FEF80E090E00E9465270E94321EAC
:1018800083E090E00E9429270E941323569A5E9AD3
:10189000549A5C9A6A9A729A81E091E09093DB0282
:1018A0008093DA02CE0101962C01809121028530CD
:1018B00009F050C000E112E180912102853009F069
:1018C00043C080912102843039F180E00E940D25CF
:1018D0001092DE02A8E1B0E0E0E40FB6F894A8951B
:1018E000A09360000FBEE093600083B7817F8460A7
:1018F00083BF83B7816083BF7894889583B78E7FD9
:1019000083BF0FB6F894A89580916000886180939A
:101910006000109260000FBE80912002882309F4BD
:10192000CBCF0E94F812E7EAF1E081919191A19169
:10193000B191892B8A2B8B2B09F019C52BEB31E048
:101940002E173F0791F7B8CF0E9439230E943D1F01
:101950000E940D250E94F8122EE8622E21E0722EC0
:1019600087EA91E09EAB8DABDC01F301019111910F
:10197000219131914D915D916D917D91402751273C
:101980006227732791E0E23AF90729F0452B462BAD
:10199000472B61F307C0452B462B472B19F40E94B8
:1019A000EF1460C097EA292E91E0392E10E0D101A2
:1019B0008D909D90AD90BD901D01F301C080D180B0
:1019C000E280F380D501C4018C259D25AE25BF257D
:1019D00089AB9AABABABBCAB892B8A2B8B2BC9F1F8
:1019E00000E0C12CD12C7601C39489A99AA9ABA996
:1019F000BCA98C219D21AE21BF21892B8A2B8B2B49
:101A0000D9F00BA71CA70E94971E9EA78DA791E057
:101A10009FA7B501A4014C215D216E217F21452B9B
:101A2000462B472B09F490E098AB4BA55CA56DA520
:101A30007EA58FA50E9443250F5FCC0CDD1CEE1CFC
:101A4000FF1C013191F6D3018D929D92AD92BC9213
:101A500013971F5FB4E06B0E711C153009F0A7CF10
:101A60000E948B1E8091D1029091D202892B09F4A1
:101A70003EC04091C6025091C7026091C802709169
:101A8000C9022FB7F8948091DF029091E002A091F3
:101A9000E102B091E2022FBF841B950BA60BB70B9E
:101AA0004091C2025091C3026091C4027091C5027C
:101AB00084179507A607B707D0F08091D1029091BF
:101AC000D2020E9442261092D2021092D1021092AB
:101AD000C6021092C7021092C8021092C902109258
:101AE000C2021092C3021092C4021092C50286E094
:101AF000EBE0F3E0D20101900D928A95E1F71092AC
:101B00000D0310920E0310920F03109210038B819D
:101B1000811104C08C81882309F453C0809109038A
:101B200090910A030E947C1E9C01909104039923CA
:101B300009F43CC42531310508F443C09F3F19F036
:101B40009F5F909304031B81112361F00E94F02694
:101B5000111614F491E001C09FEF899F802D11248C
:101B600080930D031C81112361F00E94F026111651
:101B700014F491E001C09FEF899F802D1124809380
:101B80000E0330910D033323E1F020910E03222345
:101B9000C1F045EB3403C0011124992319F090934F
:101BA0000D0303C081E080930D0335EB2303C001D7
:101BB0001124992319F090930E0303C081E08093C0
:101BC0000E038D81811104C08E81882309F453C0D6
:101BD00080910703909108030E947C1E9C019091C4
:101BE0000503992309F4E7C32135310508F443C0FF
:101BF0009F3F19F09F5F909305031D81112361F0B2
:101C00000E94CE26111614F491E001C09FEF899F27
:101C1000802D112480930F031E81112361F00E94F7
:101C2000CE26111614F491E001C09FEF899F802DFC
:101C300011248093100330910F033323E1F020919E
:101C400010032223C1F045EB3403C0011124992372
:101C500019F090930F0303C081E080930F0335EBDD
:101C60002303C0011124992319F09093100303C09A
:101C700081E08093100346E050E0B2018BE093E0F6
:101C80000E94EF27892BA9F480910D0381110FC0C9
:101C900080910E0381110BC080910F03811107C049
:101CA00081E090911003911103C080E001C081E0B8
:101CB00080FD0E94A42686E0F201ABE0B3E0019033
:101CC0000D928A95E1F70E943D1F182F8091A20185
:101CD000181739F01093A2010E948B1E812F0E94C9
:101CE0000D2580912102843009F0DFCD83E08093BF
:101CF000E9008091E80082FFD8CD8091E80085FF5F
:101D000021C00E94BE1D81111BC0A0E2EA2EF12C51
:101D1000820109C08091F100D8018D938D01B1E05D
:101D2000EB1AF10869F08091E80085FDF3CF80910E
:101D3000E8008B778093E8000E94BE1D882399F30A
:101D400091E001C090E08091E8008B778093E800FB
:101D5000992309F4AACD0091BB011091BC0189819E
:101D60000115110561F08E3F09F0FAC28A818330B6
:101D700008F4B6C18550833008F0F2C2B1C18B308F
:101D800009F495C110F5853009F473C0B0F48230C0
:101D9000C1F130F4813009F0E1C21A8289E08BC2CE
:101DA000833009F459C0843009F0D8C24C816B816A
:101DB0008A810E942A219D83F7C2873009F4CEC20E
:101DC00008F0CCC20E94CA20CBC2803109F4B5C051
:101DD00060F48D3009F45AC008F456C08E3009F40E
:101DE00058C08F3009F47DC0B9C2823109F4ABC04C
:101DF00008F4A6C0833109F4CEC08E3F09F470C147
:101E0000ADC28A81823009F4C8C2833051F081307A
:101E100009F0A4C20E948B1E9B838C837D836E83FA
:101E20009FC28091C0029091C102892B09F498C28F
:101E3000F2019E01205F3F4FADA9BEA94D915D917A
:101E40006D917D91BEABADAB62835383448333967A
:101E5000E217F30789F784C28A81823009F07EC2D3
:101E60006B817C818D819E810E949D270E942B2207
:101E700077C22D813E813227232732274C816B8107
:101E80008A810E94A3206CC280E15BC01A828FED20
:101E900012C20A811B81102701271027CC80D12C68
:101EA000BDE1CB16D10408F05BC27201C8018F5DA1
:101EB0009C4F9701241935092C153D0508F050C297
:101EC0000F3D110528F40E942927F701848303C0E0
:101ED000D70114961C920F5F1F4FBFEFEB1AFB0A3E
:101EE000E5CF8091C0029091C102892B09F438C2DC
:101EF0000A811B81102701271027EC80F12CEDE1CE
:101F0000EE16F10408F02CC26201C8018F5D9C4FEF
:101F10009601241935092E153F0508F021C20F3D01
:101F2000110528F4D60114966C910E9447270F5F83
:101F30001F4FBFEFCB1ADB0AE8CF0E94932010C2DD
:101F400084E08A830DC20A811B8110270127102794
:101F5000CC80D12CEDE1CE16D10408F001C2720183
:101F6000C80189969701241935092C153D0508F0FB
:101F7000F7C1083AF2E01F0730F40E942927D70181
:101F800014968C9302C0F70114820F5F1F4FFFEF6E
:101F9000EF1AFF0AE5CF0A811B81102701271027BE
:101FA000CC80D12C2DE1C216D10408F0D9C1480152
:101FB00039E2830E911C083A42E0140708F0D0C1C0
:101FC00088EA92E0801B910B8C159D0508F4C8C12E
:101FD0008091C0029091C102892B11F072015EC004
:101FE00000FF0FC0C80188960E94292790E0982F13
:101FF00088272D81822B81159C4731F48FEF8D83AB
:1020000003C0E12CF12C03C0EE24E394F12CC801B1
:102010008C0D9D1D560180FF1BC0B1E0AB1AB108AD
:1020200065E0662E712C6C0E7D1E6A0C7B1CC40153
:102030008C0D9D1D0E942927F301208130E0322F55
:102040002227282B21153C4719F48FEFD3018C93BD
:10205000F201EE0DFF1D2FEFCF01841995098A15AE
:102060009B0508F0BBCF848190E0982F88273581AD
:10207000832B81159C4711F4248325833296ECCF62
:10208000083AE2E01E0728F4D70114966C910E94EA
:1020900047270F5F1F4FBFEFEB1AFB0AC801899656
:1020A0009701241935092C153D0550F359C180912C
:1020B000C0029091C102892B09F452C140E250E064
:1020C000B20182E00E94F41DEFEFF1EE24E0E15056
:1020D000F0402040E1F700C000000E94321E40C1E5
:1020E000EA818E2F90E08E30910508F039C1FC0115
:1020F000E557FF4F0C94972788E0EAE0F1E0DE0116
:10210000919601900D928A95E1F780E2D2011D929D
:102110008A95E9F786E0898388E0FE01B196DE01C1
:102120001596E8C080E3898382E08A831B821C8243
:1021300017C18C8190E0982F88272B81820F911DE9
:10214000092E000CAA0BBB0B45E0880F991FAA1F94
:10215000BB1F4A95D1F7AC01BD01405E5F4F6F4F89
:102160007F4F481759076A077B0708F4F9C0803387
:10217000E2E09E07A105B10508F0F2C04133F2E0AC
:102180005F076105710520F040E352E060E070E018
:10219000481B590BBC016A5B7E4FC2010E9410278D
:1021A000DFC040E250E06FEF70E0C2010E94FC2708
:1021B0008091C00289830A831B821C8282E08D8306
:1021C0008DE0F2C081E090E09093BC018093BB0170
:1021D00082E390E09093A6018093A5010E94971E50
:1021E0009093A4018093A301BBC0012B09F440C0CC
:1021F0008091AF019091B001A091B101B091B20175
:102200002DE0B695A795979587952A95D1F71091CA
:10221000A701117018238091A3019091A4010E943D
:102220007C1E85369105F0F01123E1F00E94971E87
:102230009093A4018093A3018091A5019091A601A0
:1022400001979093A6018093A501892B89F41092A0
:10225000BC011092BB0181E090E09093C102809399
:10226000C00206C082E390E09093A6018093A5018E
:102270008091C00289838091BB018A838091A501EE
:102280001AC01092C1021092C0026AC040E250E02F
:102290006FEF70E0C2010E94FC2762C08B81853025
:1022A00061F0863061F181115BC080E2D2011D9244
:1022B0008A95E9F788E08B8353C06C81CE018196C3
:1022C0002AE0FC0111922A95E9F7683060F4FAE0FF
:1022D0006F9FB00111246F527D4F4AE050E00E9481
:1022E000192780E001C08FEF89838AE0FE01B19653
:1022F000DE01129601900D928A95E1F731C06C8152
:102300008AE0FE013596DE01919601900D928A9544
:10231000E1F78BA19CA181152CE7920741F4209154
:10232000C0023091C102232B11F480E090E09CA305
:102330008BA3683070F43AE0639FB00111246F52B0
:102340007D4F4AE050E0CE0181960E946B2780E0ED
:1023500001C08FEF89830E94582102C08FEF8983CB
:1023600040E250E0B20182E00E94F41D9ECA09BD25
:1023700019BD09B400FEFDCF8091D8008F7D8093F8
:10238000D8008091E00082608093E0008091E000BE
:1023900081FDFCCF0E9439238FCA88E290E00E9421
:1023A00029271B821C821D828E83DACF2B303105B8
:1023B00008F0C6CB06CC2B30310508F01BCC5BCC2B
:1023C00080E0089590918B0192FF0DC0282F287115
:1023D000283019F4877F846006C0282F24712430A8
:1023E00011F48B7F886093FF0DC0282F287128314E
:1023F00019F4877E846106C0282F2471243111F4DA
:102400008B7E886120918C0120FF0DC0382F3871A0
:10241000383019F4877F816006C0382F3171313030
:1024200011F48E7F886021FF0DC0282F287128317C
:1024300019F4877E816106C0282F2171213111F4A2
:102440008E7E886194FD877E08958238910569F1BA
:10245000B0F48133910509F475C048F489329105CF
:1024600009F467C08A32910509F471C00895853373
:10247000910509F459C089339105B9F00895833E57
:10248000910589F138F4803E9105D1F0823E9105A5
:1024900029F10895863E9105C9F1873E9105D9F14C
:1024A000843E910509F06CC027C020918B0120FD6E
:1024B00057C021FD55C020918C0123FD5BC00895BC
:1024C00080918B0180FD48C080918C0180FF48C0C5
:1024D00080918B0184FD46C083EE51C080918B01B9
:1024E00082FF3CC0F5CF80918B0182FD37C0809187
:1024F0008C0180FD35C0ECCF80918C0181FF36C00E
:1025000080918B0184FD2EC087EE39C080918B01B4
:1025100083FF2AC0F5CF80918B0183FD25C0809178
:102520008C0181FD23C0ECCF80918B0185FD22C001
:102530001FC080918B0185FD1BC080918C0183FFA2
:1025400019C00AC080918B0186FD16C017C080910A
:102550008B0186FD13C010C089E311C082EE0FC04D
:1025600080EE0DC080E00BC086EE09C084EE07C08F
:1025700085E305C089E203C08AE201C081E390E0FF
:1025800008952091FD019091C40157E02917A9F009
:1025900030E0529FF001539FF00D1124EB53FE4F9A
:1025A0007181761306C07081781303C0758174132E
:1025B00006C02F5F3F4F2770E9CF80E0089581E08C
:1025C0000895F894E82FE295EF70F0E031A1282FFC
:1025D0002F7081E090E001C0880F2A95EAF7982FCC
:1025E0009095932391A392A1892B82A37894089527
:1025F000A4E1B0E0EEEFF2E10C94A627AE014F5F4C
:102600005F4F7A0184E1FA0111928A95E9F702E1BC
:1026100011E06A0197E1A92E91E0B92E88248394F4
:10262000912CF80180818F3F09F452C0F894E82F73
:10263000E295EF70F0E021A18F70A40102C0440F79
:10264000551F8A95E2F7CA01922F982B91A392A168
:102650008095892382A3789400C0E7E1F1E041E00E
:1026600050E060E070E0412C512C320121912F3F6D
:1026700091F0A22FA295AF70B0E090968C9190E06F
:102680002F7002C0959587952A95E2F780FD03C0CB
:10269000DB01CA0103C080E090E0DC01482A592A2E
:1026A0006A2A7B2A440F551F661F771F81E0E83294
:1026B000F807E1F6F80180818F3F11F00E94E112E6
:1026C000F0EAFA95F1F7F601408251826282738254
:1026D0000F5F1F4FF4E0CF0ED11CA016B10609F01A
:1026E000A0CF44E150E0B70185E791E00E94EF27D9
:1026F000892B89F084E1F701A5E7B1E001900D9203
:102700008A95E1F781E0809313020E94971E9093CF
:1027100012028093110280911302811102C080E0A5
:1027200020C080911102909112020E947C1E059798
:10273000B0F344E150E065E771E087EA91E00E9480
:10274000EF27892B59F084E1E5E7F1E0A7EAB1E052
:1027500001900D928A95E1F781E001C080E010922E
:1027600013026496E0E10C94C2272091BB013091E2
:10277000BC01232BA1F4703F39F4603F81F48091B8
:102780003302909134020895753048F4613138F481
:10279000843028F4462F672F0E942A21089580E074
:1027A00090E008951F93CF93DF930E942512EC01D0
:1027B000C11580E5D807E8F5C11590E4D90708F000
:1027C000A8C0C03ED10530F5CD3CD10508F094C07D
:1027D000C83AD10578F4C53AD10508F083C0C130B4
:1027E000D10509F47CC008F4F2C0C430D10508F06A
:1027F000F1C0EDC0C33CD10508F0E9C0C85AD0E033
:10280000CC0FDD1FC55DDE4F0990D881C02DCE01F4
:102810009464E1C0C11580E2D80708F0CBC0C115AF
:1028200091E0D90708F06BC0C83ED10508F4D2C0CA
:10283000CEC0C03682E5D80728F5C03492E5D90766
:1028400008F079C0C03282E5D80708F06CC0C11525
:1028500092E5D90708F481C04C2F4695469580E251
:10286000489FA0011124C37021E030E0C90102C0DB
:10287000880F991FCA95E2F7EA01C82BD92BCE0120
:102880009D68A9C0C03A82E5D807B8F48C2F8F7133
:10289000C03892E5D90708F07BC08695869590E20E
:1028A000899F90011124C37081E090E002C0880FDD
:1028B000991FCA95E2F79A6868C0C03C82E5D807BC
:1028C00008F46DC0C03E92E5D90708F080C0CF7112
:1028D000DD27DC2FCC27CE01806F906A7CC081E0A1
:1028E00090E079C0C55AD0E0C85DDE4F8881C82F1E
:1028F000D0E0CE0190646FC0CE0190656CC08D2F8A
:102900000E94E211182FCE0199270E9425121F71F3
:102910005CC0CE0199270E942512CC27DF70D06AB7
:102920008C2B9D2B58C0CF71D0E0DC2FCC27CE0153
:10293000816F906A50C08C2F8F718695869590E23A
:10294000899F90011124C37081E090E002C0880F3C
:10295000991FCA95E2F79C6818C08C2F8F710E944E
:10296000E21195E0D695C7959A95E1F7CF70D0E042
:10297000DC2FCC27282F30E084FF05C084E0220F15
:10298000331F8A95E1F7D069CE01822B932B23C0A8
:1029900090E0D82FCC27CE01846F906A1CC08C2F7A
:1029A0008F710E94E2118F7190E0D82FCC27CE0159
:1029B000906211C08D2F8F710E94E211182FCE01ED
:1029C00099270E9425121F719062912B04C080E00C
:1029D00090E001C0CE01DF91CF911F910895A6E054
:1029E000B0E0E5EFF4E10C94B2270E94971E8C0151
:1029F00080910F02909110020817190781F0198237
:102A00001A820E94971E682F49815A81792F80E08F
:102A100090E00E9443251093100200930F02269627
:102A2000E4E00C94CE2780910E02882331F01092BE
:102A30000E0210920D0210920C02089590910E0257
:102A4000292F282379F08095892380930E028823EB
:102A500019F00E94971E02C080E090E090930D0252
:102A600080930C020895809590910B0289238093A6
:102A70000B02089590910B0280910A02892B80939A
:102A80002B0280910E02882311F10E94971E209143
:102A90000C0230910D02821B930B8838934110F089
:102AA0000E94131590912B0280910E02892B809326
:102AB0002B02EDE2F2E097E080E0915029F02191C5
:102AC0002223D9F38F5FF9CF81110E9413158091D2
:102AD000CE02809590912B0289239091CF02892B71
:102AE00080932B0248E050E062E072E08BE292E0DB
:102AF0000E94EF27892BA9F088E0EBE2F2E0A2E048
:102B0000B2E001900D928A95E1F7E091DA02F0913E
:102B1000DB02309731F00280F381E02D8BE292E00E
:102B20000995089510920102109200021092FF017F
:102B30000895909101028095892380930102282FA6
:102B4000277069F4981759F090918C0192FF07C093
:102B50008695869586950E94FA220E949215089580
:102B600090918C0192FB222720F9281779F080FBA5
:102B700092F990938C0160918B0170918C0184E0AB
:102B800090E00E94652782E00E9499150895909137
:102B90008C0192FF10C098E0899F90011124262B90
:102BA000209301020E9407230E94971E9093000227
:102BB0008093FF0108950E94072308959091FE01DC
:102BC000292F282321F0809598239093FE010895C2
:102BD0008091FD019091C401891719F08F5F877072
:102BE000FBCF0895CF93DF938091C30182958F70BF
:102BF00009F04EC08091C201882309F449C0809138
:102C0000FD014091C4015091BE016091BD01C09190
:102C1000BF01D091C00177E08417D1F190E0789F97
:102C2000F001799FF00D1124DF01AB53BE4F1496D4
:102C30002C911497222349F111962C911197251369
:102C400024C02C91261321C015962C911597211183
:102C50001CC012962D913C9113972C1B3D0B283CC8
:102C6000310598F48091C3018F7080618093C30116
:102C7000E553FE4F80818F70806180838DEB91E002
:102C80000E946D040E94E81503C001968770C4CFAE
:102C9000DF91CF910895A4E1B0E0E1E5F6E10C9475
:102CA000AA278C0186E0F801DE011F9601900D92A3
:102CB0008A95E1F7F8018481E5809DEB892E91E00A
:102CC000992E9091C101911120C0882309F463C10C
:102CD000EE2009F442C0C8010E941623F82E882372
:102CE000E1F187E0F801D40101900D928A95E1F7B6
:102CF0008091C101813031F48091BD019091BE017C
:102D00000E945F220E94F21548C1F801D080C18064
:102D1000A280B380F090C2012091BF013091C00128
:102D2000FF2009F4E7C0A501421B530B483C5105A5
:102D300008F09DC0882309F430C18091C301282F79
:102D4000207F9091BE01222361F09C1509F460C0A0
:102D5000C8010E941623811163C0C8010E946D043E
:102D60001AC19C1113C09091BD019D110FC0E110BB
:102D70000DC08F7080618093C3018DEB91E00E9444
:102D80006D048091C301F801868303C1E1103AC04C
:102D900040E06C2D8D2D0E94C11240E06C2D8D2DD8
:102DA0000E94C112E82E8111F4C0DF86C88A8F8587
:102DB00098890E945F22292F22952F70243020F4B9
:102DC0009F70223028F009C02A50223080F014C0B1
:102DD000992349F0811107C013C0992321F0F8010C
:102DE0009681907F69F0805E883030F409C0803F22
:102DF00038F0815F833020F0C8010E946D04EF2C11
:102E0000FE2CCBC08091C30181608093C301C1C0FF
:102E10009091BD019D119CCFE1109ACFF80198C00F
:102E2000EE2009F49ACF2091C301822F82958F70F2
:102E300090E002978CF08091BD019091BE0199873E
:102E40008887BB86AA868091C1018C871D862E87C4
:102E5000CE0108960E946D0487E0F801ADEBB1E069
:102E600001900D928A95E1F70E94F21594C090911D
:102E7000C301292F207F51F48DEB91E00E946D0456
:102E800087E0F40111928A95E9F783C0882309F459
:102E900084C08091BE018C110CC08091BD018D1148
:102EA00008C0E11006C0F8019683C8010E946D04B5
:102EB0006AC0C8010E941623882309F44ECFEE2071
:102EC00009F44BCF2091C301822F82958F7090E03F
:102ED000029714F28091BD019091BE019A8389837B
:102EE000BC82AB828091C1018D831E822F83CE0173
:102EF0000196B0CFA21AB30AF8ECAF16B10408F0ED
:102F000042C0882309F447C0FE2CEE2009F425CFE7
:102F10008091BE018C1129C08091BD018D1125C009
:102F20009091C30190FD18C0892F82958F70282F32
:102F300030E02115310581F0F80196832F303105FD
:102F400041F08F5F982F9295907F86818F70892BAB
:102F50008683C8010E946D0487E0F801ADEBB1E003
:102F600001900D928A95E1F718C0C8010E941623BE
:102F7000811172CF8091C30181608093C301C80128
:102F80000E946D040AC087E0F40111928A95E9F766
:102F900004C0F12C02C0FF24F3948F2D6496ECE062
:102FA0000C94C6278091230287FF11C08091E8000E
:102FB00082FD05C0809121028111F8CF11C080915E
:102FC000E8008B770BC080912102882349F0809123
:102FD000E80080FFF8CF8091E8008E778093E800CA
:102FE0000895982F973068F59093E900981739F075
:102FF0007091EC002091ED005091F00003C0242F5F
:10300000762F50E021FD02C09F5FECCF3091EB00A6
:103010003E7F3093EB003091ED003D7F3093ED002B
:103020003091EB0031603093EB007093EC00209313
:10303000ED005093F0002091EE0027FDE5CF80E0F9
:1030400008958F708093E90081E00895209129020E
:1030500030912A022617370748F06115710539F4B7
:103060002091E8002E772093E80001C0B901FC010F
:1030700020E06115710579F1809121028823F1F139
:103080008530F1F18091E80083FD3CC08091E8003B
:1030900082FD2EC08091E80080FFEBCF2091F300ED
:1030A0008091F20090E0922B6115710551F088300B
:1030B000910538F421912093F10061507109019636
:1030C000F3CF21E0089709F020E08091E8008E77A7
:1030D0008093E800CECF2111CFCF0AC0809121028A
:1030E000882361F0853061F08091E80083FD0AC09B
:1030F0008091E80082FFF2CF80E0089582E0089599
:1031000083E0089581E0089543E050E0BC0184E04D
:103110000E94F41D089546E050E0BC0184E00E9446
:10312000F41D0895CF93DF93EC0148E050E0BC011B
:1031300081E00E94F41D88E0FE01A7E1B2E0019069
:103140000D928A95E1F7DF91CF910895A0E0B0E06C
:10315000ECEAF8E10C94AC27EC018AE0A82E288177
:10316000222309F49AC0213009F041C089818130BD
:1031700039F48E010E5F1F4F8A810E94EE2408C031
:10318000823041F48E010E5F1F4F8A810E94942489
:10319000E80181C0833039F48E010E5F1F4F8A81B0
:1031A0000E945E24F5CF843011F0219674C02A81EC
:1031B000229680E090E030E0205331092A3031053A
:1031C00058F4A89EA001A99E500D1124C901840F96
:1031D000951F21962881EFCF009709F45CC0EFE995
:1031E000FFE03197F1F700C000000197F5CFE22F23
:1031F000F0E0E25CFA4FB490822F86958695869532
:1032000090E0FC01E25DFA4FE4902770F12C022E71
:1032100002C0F594E7940A94E2F7F1E0EF22FF246C
:10322000FC01E25EFA4FC490D12C022E02C0D5946C
:10323000C7940A94E2F731E0C322DD24FC01E25F87
:10324000FA4F049110E002C0159507952A95E2F710
:1032500001701127E114F10419F081EE0E94942409
:10326000C114D10419F086EE0E9494248B2D0E9483
:10327000EE24C114D10419F086EE0E945E24E114FC
:10328000F10419F081EE0E945E240115110519F078
:103290008CE20E94EE24219662CFCDB7DEB7EAE041
:1032A0000C94C827AAE2B0E0E8E5F9E10C94B32752
:1032B000E3E2F2E08BE292E02091F10021938E179D
:1032C0009F07D1F780912402833009F463C030F462
:1032D000813071F0823009F49DC0B4C08A3009F4A5
:1032E00089C08B3009F46EC0893009F0ABC020C0B2
:1032F00080912302813A09F0A5C08091E800877F80
:103300008093E8008091270290912802892B21F474
:1033100068E087E192E003C060E080E090E070E068
:103320000E9426188091E8008B778093E8008AC07D
:1033300080912302813209F085C08091270290910B
:103340002802009719F0029709F07CC08091E800EC
:10335000877F8093E8008091E80082FD05C080911E
:1033600021028111F8CF6EC02091F3008091F2000C
:1033700090E0922B029731F48091F100813011F0AE
:10338000863021F48091F100809316028091E8004C
:103390008B7754C080912302813A09F053C0809109
:1033A000270290912802892B09F04CC08091E800F7
:1033B000877F8093E8008091E80080FFFCCF8091B8
:1033C000090137C0809123028132E1F58091270203
:1033D00090912802892BB1F58091E800877F809336
:1033E000E8000E94D21780912502809309010E9473
:1033F000392328C080912302813221F58091E80091
:10340000877F8093E8000E94D217809126028093E4
:10341000150218C080912302813AA1F48091E8003E
:10342000877F8093E8008091E80080FFFCCF809147
:1034300015028093F1008091E8008E778093E80078
:103440000E94D2178091E80083FFEBC18091230294
:1034500090912402492F50E04A30510508F0E1C113
:10346000FA01E756FF4F0C949727803821F08238F5
:1034700009F0D7C108C080911F02909120029923C2
:1034800089F082600FC0809127028F70873008F02A
:10349000C8C18093E9008091EB0085FB882780F903
:1034A0001092E9009091E800977F9093E800809354
:1034B000F1001092F1007CC1282F2D7F09F0B1C1DD
:1034C000882319F0823061F0ACC1809125028130EF
:1034D00009F0A7C1933009F080E0809320022EC04C
:1034E0008091250281112AC0809127028F702FEFD1
:1034F000280F263008F095C18093E9002091EB0059
:1035000020FF1CC0933021F48091EB00806214C036
:103510009091EB0090619093EB0021E030E0A901E5
:1035200002C0440F551F8A95E2F74093EA001092BB
:10353000EA008091EB0088608093EB001092E90034
:103540008091E800877F8093E8000E94D21769C1CC
:10355000811167C1109125021F778091E300807867
:10356000812B8093E3008091E800877F8093E800BF
:103570000E94D2178091E80080FFFCCF8091E30089
:1035800080688093E300111102C082E001C083E0F3
:103590008093210246C18058823008F042C12091B8
:1035A0002502309126022C3D53E0350779F583E062
:1035B0008A838AE289834FB7F894DE01139620E06C
:1035C0003EE051E2E32FF0E050935700E49120FFFA
:1035D00003C0E295EF703F5FEF708E2F90E0EA300E
:1035E00010F0C79601C0C0968D939D932F5F243134
:1035F00049F74FBF8091E800877F8093E8006AE237
:1036000070E0CE0101960E942618C0C0809127026A
:1036100090912802432F552743305105B1F068F4AB
:103620004130510509F40CC14230510509F0F9C08F
:103630008BE590E0E3E5F4E057C04132510589F1B4
:103640004232510509F43CC0ECC0C90199278130D0
:103650009105B9F070F082309105D9F0039709F027
:10366000E0C0E0ECF4E0E4918E2F90E0E0ECF4E0D8
:1036700038C0EAE0F5E0E4918E2F90E0EAE0F5E072
:1036800030C0E0EFF4E0E4918E2F90E0E0EFF4E062
:1036900028C0EEEDF4E0E4918E2F90E0EEEDF4E042
:1036A00020C08330910508F0BCC0880F991FFC0131
:1036B000E659FE4F0190F081E02D89E090E014C0C2
:1036C0008330910508F0ADC0FC01EE0FFF1FEC59EF
:1036D000FE4F0190F081E02DDC01AF59BE4F8C917F
:1036E00090E0009709F49DC02091E800277F209387
:1036F000E8002091290230912A022817390708F49E
:10370000C90140E0009789F120912102222309F4A8
:103710003DC02530D9F12091E80023FD37C020912C
:10372000E80022FD2FC02091E80020FFEBCF409160
:10373000F3002091F20030E0342B009759F028304C
:10374000310540F444914093F100319601972F5F89
:103750003F4FF3CF41E02830310509F040E02091A0
:10376000E8002E772093E800CDCF4111CDCF0AC0DD
:1037700080912102882351F0853041F08091E8004A
:1037800083FD04C08091E80082FFF2CF8091E800C1
:103790008B778093E80045C0803809F042C0809163
:1037A000E800877F8093E800809122028093F100F7
:1037B0008091E8008E77C7CE811133C080912502B9
:1037C000909126029927029764F58091E800877FFF
:1037D0008093E80010912502109322020E94D217D4
:1037E000111106C08091E30087FD02C081E001C095
:1037F00084E08093210242E061EC81E00E94F117B5
:1038000042E261EC84E00E94F11742E261EC82E066
:103810000E94F11742E260EC83E00E94F117809170
:1038200021028091E80083FF10C08091E800877F2B
:103830008093E8008091EB0080628093EB0005C0EC
:1038400082E190E0EEEAF4E04FCFAA96E3E00C9438
:10385000CF271F920F920FB60F9211242F933F93F1
:103860004F935F936F937F938F939F93AF93BF9388
:10387000CF93DF93EF93FF93C091E900CF708091D6
:10388000EC00D82FD17080FDD0E81092E900809133
:10389000F000877F8093F00078940E945219109274
:1038A000E9008091F00088608093F000CD2BCF700C
:1038B000C093E900FF91EF91DF91CF91BF91AF915C
:1038C0009F918F917F916F915F914F913F912F9138
:1038D0000F900FBE0F901F901895E8EDF0E08081DB
:1038E0008E7F80831092E2001092DA001092E10045
:1038F000A0EEB0E08C9181608C9380818F77808383
:1039000019BCA7EDB0E08C918E7F8C9380818F7E67
:103910008083109214020895A0E0B0E0E2E9FCE197
:103920000C94AE27C8EDD0E088818F7E8883E7EDC8
:10393000F0E080818160808384E082BF81E08093B9
:10394000140288818E7F888302EE10E0F8011082D5
:103950001092DA0081EEC82ED12CF60110828881F7
:103960008F77888388818068888388818F7D88832A
:1039700019BC109221021092220210922002109281
:103980001F0290EEE92EF12CF70180818B7F80835E
:1039900088818160888342E060E080E00E94F117C6
:1039A000F60180818E7F8083F80180818160808331
:1039B000808188608083F70180818E7F8083888109
:1039C00080618883CDB7DEB7E8E00C94CA271F92E8
:1039D0000F920FB60F9211242F933F934F935F9343
:1039E0006F937F938F939F93AF93BF93EF93FF93C7
:1039F0008091E10082FF09C08091E20082FF05C052
:103A00008091E1008B7F8093E1008091DA0080FF5C
:103A10002AC08091D80080FF26C08091DA008E7F76
:103A20008093DA008091D90080FF18C080E189BDC1
:103A300082E189BD09B400FEFDCF81E080932102BF
:103A40008091140281110FC00E946D1C0E948C1C79
:103A50008091E20084608093E20005C019BC10925E
:103A60002102109214028091E10080FF17C0809122
:103A7000E20080FF13C08091E2008E7F8093E2001D
:103A80008091E20080618093E2008091D8008062A2
:103A90008093D80019BC85E0809321028091E100D9
:103AA00084FF30C08091E20084FF2CC080E189BD9A
:103AB00082E189BD09B400FEFDCF8091D8008F7DE1
:103AC0008093D8008091E1008F7E8093E100809107
:103AD000E2008F7E8093E2008091E200816080931B
:103AE000E20080912202882311F084E007C08091D7
:103AF000E30087FD02C081E001C083E080932102E2
:103B0000809121028091E10083FF27C08091E20033
:103B100083FF23C08091E100877F8093E10082E0F2
:103B200080932102109222028091E1008E7F809387
:103B3000E1008091E2008E7F8093E2008091E200BC
:103B400080618093E20042E060E080E00E94F11733
:103B50008091F00088608093F000FF91EF91BF9119
:103B6000AF919F918F917F916F915F914F913F9115
:103B70002F910F900FBE0F901F9018952091E40089
:103B80003091E50095E64091EC00842F817040FF74
:103B900023C08091E80080FD1DC080912102882310
:103BA00099F0853099F08091EB0085FD11C040912E
:103BB000E4005091E5002417350729F3915011F0E6
:103BC0009A01E1CF84E0089582E0089583E00895AA
:103BD00081E0089580E008954091E80042FFDDCF44
:103BE00008958091160208950F931F93CF93DF934A
:103BF0008B01EA0190912102943079F58F708093C6
:103C0000E9008FEF9091E800815095FD06C095ED99
:103C10009A95F1F700008111F5CF8091E80085FFBA
:103C20001CC00E94BE1D882361F08091E8008E7741
:103C30008093E80012C0F80181918F018093F10018
:103C40002197209791F38091E80085FDF4CF809132
:103C5000E8008E778093E800E4CFDF91CF911F9149
:103C60000F91089581E08093E00080E28093D80076
:103C70001092C9008FE19EE40197F1F700C00000A7
:103C800087E090EBDC018093110390931203A093E3
:103C90001303B09314039CE088E10FB6F894A89541
:103CA000809360000FBE90936000FFCF78941F92C6
:103CB0000F920FB60F9211248F939F93AF93BF93E0
:103CC0008091DF029091E002A091E102B091E202C6
:103CD0000196A11DB11D8093DF029093E002A09395
:103CE000E102B093E202BF91AF919F918F910F904B
:103CF0000FBE0F901F9018959C014FB7F8948091BC
:103D0000DF029091E002A091E102B091E2024FBF88
:103D1000821B930B08952FB7F8946091DF02709186
:103D2000E0028091E1029091E2022FBF08952FB747
:103D3000F8948091DF029091E002A091E102B091AD
:103D4000E2022FBF08951F920F920FB60F92112417
:103D50008F939F93AF93BF938091DE02811113C025
:103D60008091DF029091E002A091E102B091E20225
:103D70004196A11DB11D8093DF029093E002A093B4
:103D8000E102B093E202BF91AF919F918F910F90AA
:103D90000FBE0F901F9018959C012A5F3F4FFC01AA
:103DA0004281461301C01282019682179307B9F728
:103DB00008959C01FC0132969FEF80E041914617E7
:103DC00089F09F3F19F4411101C0982F8F5F863011
:103DD000A9F79F3F39F0F901E90FF11D97FDFA9519
:103DE000628308950895A3E0B0E0E9EFFEE10C944A
:103DF000B4272091DC023091DD0228173907A1F0A9
:103E00009093DD028093DC02E091DA02F091DB0214
:103E1000309751F024E029839B838A830680F781C1
:103E2000E02DCE01019609952396E2E00C94D0276F
:103E3000A3E0B0E0EEE1FFE10C94B4272091D802BA
:103E40003091D90228173907A1F09093D9028093B5
:103E5000D802E091DA02F091DB02309751F023E0D2
:103E600029839B838A830680F781E02DCE0101960A
:103E700009952396E2E00C94D027E091DA02F091C4
:103E8000DB02309729F00190F081E02D099508952B
:103E900080E008950F931F93CF93DF93C42FD22F09
:103EA000FC0185818823B1F04093D7020E94971EC0
:103EB0009093D6028093D50280E28C0F883008F070
:103EC0004DC0C77081E001C0880FCA95EAF70E9413
:103ED0007C2344C08091D702481330C08091D50222
:103EE0009091D6020E947C1E883C910538F510E224
:103EF0001D0FCD17B9F080E28C0F883040F4C770E9
:103F000081E001C0880FCA95EAF70E947523183036
:103F100010F581E09D2F977001C0880F9A95EAF700
:103F20000E947C23802F0E94EE241830B8F4D770B2
:103F300081E001C0880FDA95EAF70AC080E28C0FB1
:103F4000883060F4C77081E001C0880FCA95EAF735
:103F50000E94752303C0802F0E94EE24DF91CF9131
:103F60001F910F910895CF93DF93EC014091CA0206
:103F70005091CB026091CC027091CD022FB7F89492
:103F80008091DF029091E002A091E102B091E20203
:103F90002FBF841B950BA60BB70B843F9140A10547
:103FA000B105A8F48091CA029091CB02A091CC02F5
:103FB000B091CD028093C6029093C702A093C8022D
:103FC000B093C90284EF91E0A0E0B0E00EC00E947F
:103FD0008B1E6093C6027093C7028093C8029093B1
:103FE000C90282E390E0A0E0B0E08093C202909327
:103FF000C302A093C402B093C502D093D202C0936F
:10400000D102DF91CF910895FF920F931F93CF9329
:10401000DF930091D3021091D4020115110509F428
:104020005CC01092D2021092D1021092CE02109275
:10403000CF02D80116966D917C9117979B013A9506
:1040400021153F4108F4707EC62FD1E0611101C0F7
:10405000D0E0F82ED8011996ED91FC911A9730977F
:1040600039F01B966D917C911C9780E00995D823BF
:10407000DD2379F08CEF8C0F813A30F46C2F8BE2DA
:1040800092E00E94CC1E05C00E943A158C2F0E941F
:104090005E24E091D302F091D40240815181FF204F
:1040A00071F0808584FD0BC08091D002882339F0A7
:1040B00091E09A01215031092F333E4708F090E0FA
:1040C00090FF03C0CA010E94B31F0E943A151092CC
:1040D000D4021092D3021092D002C801CDB7DEB73D
:1040E000E5E00C94CD27FC0184818623C1F4928104
:1040F0009923B9F08085692383FF04C081E06111B1
:1041000011C00DC0892F8F7092959F70982B862FAC
:104110008F7062956F70682B81E0961719F080E0C0
:10412000089581E00895CF93DF93C1E2D3E060E08A
:10413000CE010E9447272196C11584E0D807B9F720
:10414000DF91CF9108951F93CF93DF93962F843003
:10415000E8F46530D8F44131C8F4632F122FC42F2E
:10416000D0E0CC0FDD1F22E2929FC00DD11D1124A3
:104170009AEA899FC00DD11D1124CE0189960E9413
:104180004727612FCE018A960E944727DF91CF9162
:104190001F910895AAE0B0E0E0EDF0E20C94A827AA
:1041A000A090C002B090C10281E090E09093C10263
:1041B0008093C002612CC12CD12C712CE12CF12CEC
:1041C00000E010E046018E0C9F1CF801EE0FFF1F6F
:1041D000E80DF91DE254FA4F25913491402F672DD7
:1041E000862D0E94A3200F5F1F4F0131110569F733
:1041F00082E2E80EF11C739495E07912E1CFEAEACD
:10420000CE0ED11C6394F4E06F12D7CFCE0101968D
:104210007C018AE0F70111928A95E9F78FEF9FEF11
:104220009E838D8387E08A8701ED12E04AE050E0AB
:10423000B801C7010E946B27065F1F4F0132F3E0F0
:104240001F07A1F7B092C102A092C0022A96EEE029
:104250000C94C4270F931F93CF93DF93843008F5FA
:104260006530F8F44131E8F4C42FD0E0CC0FDD1F05
:1042700022E2629FC00DD11D11243AEA839FC00D36
:10428000D11D1124CE0189960E94292790E0182F74
:104290000027CE018A960E9429279801282BC90160
:1042A00002C080E090E0DF91CF911F910F910895BF
:1042B000AAE0B0E0EEE5F1E20C94AA2708E412E0EF
:1042C00086E3C82E82E0D82E91EDE92E92E0F92EF9
:1042D0002FE0922E35E3A32E32E0B32E8824839470
:1042E000F601019311936F014AE050E0B701CE014E
:1042F00001960E941927F801892D11928A95E9F7F4
:1043000089819A81F801918380838F8182838D8155
:10431000838388858483898585838B819C8197832A
:10432000868310868A8587FF03C01686158603C09C
:10433000F801B686A58680FF02C0F801808681FF5D
:1043400004C0F80190859260908782FF04C0F80154
:1043500090859460908783FF04C0F80190859860F1
:10436000908784FF04C0F80190859061908785FF55
:1043700004C0F801808580628087015F1F4FFAE0EA
:10438000EF0EF11C81E2E81683E0F80609F0A8CFF1
:104390002A96ECE00C94C627A6E0B0E0E2EDF1E24C
:1043A0000C94B2278C019093340280933302011550
:1043B00080E21807B8F4802F0E945E24C801805E56
:1043C0009109089718F00115110531F4C8010E94F0
:1043D00015260E94752316C0C8010E9415260E944A
:1043E000602310C080EF89838A830E94971E8160BA
:1043F000682F9C838B8349815A817C8181E090E086
:104400000E9443252696E4E00C94CE27A6E0B0E077
:10441000ECE0F2E20C94B4279093340280933302E0
:10442000811520E2920718F40E94422610C080EF06
:1044300089838A830E94971E8160682F9C838B8367
:1044400049815A817C8181E091E00E944325269632
:10445000E2E00C94D02788E290E00E94472708957C
:10446000CF92DF92FF920F931F93CF93DF936C0154
:1044700000918A0180918901082BC3E0D0E010E00F
:10448000C8010C2E02C0959587950A94E2F780FD2D
:1044900004C02197A8F7F12C09C0FC2EB6018C2F7F
:1044A0000E94B5130E94D213019799F38F2DDF91CB
:1044B000CF911F910F91FF90DF90CF900895CF93F0
:1044C000DF93EC010E943022BE010E94B5130E94CE
:1044D000D213DF91CF910895292F953078F581314E
:1044E00068F590E031E1239F800D911D1124682F24
:1044F000677023E0969587952A95E1F7FC01EE0F0A
:10450000FF1FE80FF91FED51FD4F40E050E080E044
:10451000219130E0062E02C0369527950A94E2F7E5
:1045200021703327042E01C0220F0A94EAF7822B50
:104530004F5F5F4F4330510559F7089580E008956C
:10454000292F953088F5813178F590E031E1239F6E
:10455000800D911D1124282F277051E001C0550FA7
:104560002A95EAF723E0969587952A95E1F7FC01CD
:10457000EE0FFF1FE80FF91FED51FD4F20E030E077
:1045800070E04081CB01022E02C0969587950A9477
:10459000E2F78170819584278523842781932F5F9B
:1045A0003F4F2330310569F7089580938A010895BC
:1045B00090918A0121E030E0F90101C0EE0F8A9567
:1045C000EAF7D90102C0AA0FBB1F6A95E2F7BD0145
:1045D0006E2B01C0220F4A95EAF7892F86236813B4
:1045E00003C0892F822B03C02095822F89230E942C
:1045F000D522089521E030E001C0220F8A95EAF724
:10460000209580918A0182230E94D522089521E07D
:1046100030E001C0220F8A95EAF780918A01822B4F
:104620000E94D5220895809389010895FC01248178
:104630002223D9F0808191810E945F2292959F7000
:10464000963079F010F4925001C09A50923068F48C
:10465000803F69F018F4883E40F409C0843F29F493
:1046600006C0883E20F0813F11F080E0089581E08F
:104670000895CF9310920B02C6E0EDE2F2E0DF0165
:104680008C2F1D928A95E9F780E090E00E94181F18
:1046900080E090E00E94F31E10920A020E943A15F8
:1046A000EBE0F3E0DF011D92CA95E9F710920403F5
:1046B00010920503109206030E94A426CF9108953C
:1046C000882341F0809590910A02892380930A0201
:1046D0000E943A150895882339F090910A02892B97
:1046E00080930A020E943A150895882321F00E94BF
:1046F00033150E943A150895882339F090910B02E2
:10470000892B80930B020E943A150895662309F4C1
:104710005CC08D3C21F40E94F026819504C08E3C43
:1047200029F40E94F02680930E03C5C08F3C21F42B
:104730000E94F026819504C0803D29F40E94F02655
:1047400080930D03B8C0893D19F40E94CE2605C0A0
:104750008A3D31F40E94CE26819580930F03ABC031
:104760008B3D21F40E94CE26819504C08C3D29F416
:104770000E94CE26809310039EC09FE2980F98302F
:1047800078F421E030E0A90102C0440F551F9A954A
:10479000E2F7CA0190910C03892B80930C038BC024
:1047A0008D3D21F48091060381600CC08E3D21F483
:1047B00080910603826006C08F3D09F07CC0809125
:1047C000060384608093060376C08D3C39F4909193
:1047D0000E0397FF35C010920E0359C08E3C29F48A
:1047E00090910E031916BCF32BC090910D038F3CD2
:1047F00029F497FF25C010920D0349C0803D19F49C
:104800001916CCF31DC090910F03893D29F4191698
:10481000BCF410920F033BC08A3D19F497FF10C0FF
:10482000F8CF8B3D39F49091100397FF09C0109297
:1048300010032DC08C3D21F4909110031916BCF388
:104840009FE2980F983080F421E030E0A90102C087
:10485000440F551F9A95E2F7CA01809590910C0379
:10486000892380930C0313C08D3D21F480910603AE
:104870008E7F0BC08E3D21F4809106038D7F05C095
:104880008F3D29F4809106038B7F809306038091EE
:104890000D03811106C080910E03811102C0109298
:1048A000040380910F03811106C0809110038111D0
:1048B00002C0109205030E94A4260895882399F14E
:1048C0009CEF980F913A30F4682F8BE292E00E94AF
:1048D000CC1E0DC090E2980F983060F4877091E084
:1048E00001C0990F8A95EAF7892F0E9433150E941B
:1048F0003A1508959BE5980F933028F480E090E0F6
:104900000E94181F089598E5980F9B3128F480E0C5
:1049100090E00E94F31E089593E3980F933118F4EA
:1049200060E00E9486230895CF93882309F454C041
:10493000C82F8CEF8C0F813A88F4EDE2F2E083E32C
:1049400092E02191C21709F43FC08E179F07C9F763
:104950006C2F8BE292E00E94D91E10C080E28C0F77
:10496000883078F4C77081E090E001C0880FCA9564
:10497000EAF790910B02892B80930B020E943A1563
:104980002BC0EBE5EC0FE33040F4F0E0E85DFE4FC8
:10499000808190E00E94181F1FC0E8E5EC0FEB310A
:1049A00050F4F0E0EE0FFF1FE55DFE4F8081918136
:1049B0000E94F31E11C083E38C0F833168F461E021
:1049C0008C2F0E94862308C06C2F8BE292E00E94FD
:1049D000CC1E0E943A15BCCFCF9108951F93CF9360
:1049E000DF93182F893319F0C0E0D0E002C0C0E592
:1049F000D0E0812F0E949424209741F08FE99FE01E
:104A00000197F1F700C000002197F6CF812F0E9497
:104A10005E24DF91CF911F910895809580FF02C0A1
:104A20005E9A01C05E9881FF02C05C9A01C05C98EA
:104A300082FF02C0729A089572980895A6E0B0E0CD
:104A4000E4E2F5E20C94B32749835A8349815A8101
:104A5000992361F0222351F0CA010E943022182FBD
:104A6000682F89819A810E94A02204C0CA010E94F5
:104A70006C22182F69817A81812F0E94B5132696A6
:104A8000E3E00C94CF27ABE1B0E0E9E4F5E20C946D
:104A9000B2274E8B5F8B688F798F8A8F9B8F192FF0
:104AA000911110920A02DE011F9687E0FD0111921A
:104AB0008A95E9F786E0FE01769601900D928A9537
:104AC000E1F70A8D80918C0182FF26C00E94971E1B
:104AD0002091FF0130910002821B930B8838934193
:104AE00040F08091010282FB992790F981E08927AB
:104AF00001C080E080FF03C082E00E9499150E94FF
:104B0000971E20910C0230910D02821B930B883866
:104B1000934110F00E941315002341F021E04F85CE
:104B2000588969897A89C8010E941E250B8B1C8BC4
:104B300087E0FE013F96DE01189601900D928A955E
:104B4000E1F7CE0108960E944B1681113BC087E029
:104B5000FE013896DE01119601900D928A95E1F7DB
:104B60006C85662379F12091C40130E0C90101967A
:104B7000877099274091FD0150E084179507A1F0B7
:104B80006D8397E0929FD001939FB00D1124AB539A
:104B9000BE4FFE01319601900D929A95E1F78093F8
:104BA000C4010E94E8150EC00E9439231092C4016E
:104BB0001092FD01EDEBF1E087E0DF011D928A9597
:104BC000E9F719C017E08091FD019091C4018917A0
:104BD00091F0189FC00111248B539E4F0E944B16D9
:104BE000882349F08091FD0190E001968770992714
:104BF0008093FD01E8CF6B96E4E00C94CE270E94F1
:104C000039232FEF84E39CE0215080409040E1F76E
:104C100000C000009CE088E10FB6F894A89580934E
:104C200060000FBE90936000FFCF9C013A95211564
:104C30003F4130F5BC0166277270AC0144275470C7
:104C40009C012227387094FF0FC090FF02C080E1C2
:104C500001C080E0672B09F08062452B09F0806479
:104C6000232B79F080680895892F8170672B09F0D4
:104C70008260452B09F08460232B19F08860089529
:104C800080E00895CF93DF93EC01805E910908974F
:104C900010F0209731F4CE010E9415260E947C234B
:104CA00005C0CE010E9415260E946B238C2F0E9406
:104CB0009424DF91CF910895CF93C82F811102C022
:104CC0006FEF01C069E385E290E00E944727C111C0
:104CD00002C06FEF01C065E086E290E00E944727C6
:104CE000C11102C06FEF01C065E687E290E00E944B
:104CF0004727CF91089580E00E945C2660E070E035
:104D0000CB010E942B220E94CA200E94932081E0A6
:104D10000E945C26089585E290E00E94292789334D
:104D200081F486E290E00E942927853051F487E2E1
:104D300090E00E94292791E0853609F090E0892FC4
:104D400001C080E0817008950E94971E20910D039C
:104D5000211104C020910E03222321F090930A0315
:104D60008093090320910F03211104C020911003A7
:104D7000222321F09093080380930703E091DA0245
:104D8000F091DB02309749F082E080930B030480BE
:104D9000F581E02D8BE093E009950895809106035D
:104DA00080FD16C081FD16C082FD18C080910503EC
:104DB000882391F0883290F428E0829FC00111246A
:104DC00068E270E00E948327862F672B29F007C0D6
:104DD00082E0089584E0089581E0089588E00895D0
:104DE0008091060380FD14C081FD14C082FD16C0B1
:104DF00080910403882381F08E3180F420E5829F26
:104E0000C00111246EE170E00E948327862F08956F
:104E100084E1089588E2089588E0089580E5089582
:104E2000FB01DC0102C005900D9241505040D8F7C3
:104E30000895DC01CB01FC01F999FECF06C0F2BD5B
:104E4000E1BDF89A319600B40D9241505040B8F748
:104E50000895F999FECF92BD81BDF89A992780B542
:104E60000895A8E1B0E042E050E00C941B27DC017B
:104E7000A40FB51F4150504048F0CB01840F951F3F
:104E80002E910E94482741505040D0F70895262F78
:104E9000F999FECF92BD81BDF89A019700B4021630
:104EA00039F01FBA20BD0FB6F894FA9AF99A0FBEDE
:104EB00008950396272F0E9448270E944727252FF1
:104EC0000E944827242F0C9448270196272F0E94E0
:104ED00048270C944727DC01CB0103C02D910E9489
:104EE000762741505040D0F70895262FF999FECFEC
:104EF0001FBA92BD81BD20BD0FB6F894FA9AF99AF7
:104F00000FBE0196089597FB072E16F4009407D064
:104F100077FD09D00E94DB2707FC05D03EF4909571
:104F200081959F4F0895709561957F4F0895EE0F7D
:104F3000FF1F0590F491E02D0994692796276927B2
:104F400078278727782708952F923F924F925F9274
:104F50006F927F928F929F92AF92BF92CF92DF9289
:104F6000EF92FF920F931F93CF93DF93CDB7DEB7EE
:104F7000CA1BDB0B0FB6F894DEBF0FBECDBF099482
:104F80002A88398848885F846E847D848C849B84D9
:104F9000AA84B984C884DF80EE80FD800C811B81E7
:104FA000AA81B981CE0FD11D0FB6F894DEBF0FBE16
:104FB000CDBFED010895AA1BBB1B51E107C0AA1F7D
:104FC000BB1FA617B70710F0A61BB70B881F991FAA
:104FD0005A95A9F780959095BC01CD010895FB01E4
:104FE000DC0104C08D910190801921F441505040A2
:104FF000C8F7881B990B0895DC0101C06D934150DF
:0A5000005040E0F70895F894FFCF48
:10500A0001F11D92188B18841801346F623CBD6B34
:10501A00D9BC33323130C6F0F1F4F5F6F7959392F4
:10502A009190666736353497818283E200E900EA17
:10503A0000B500B600B700CD008301CC008A01920A
:10504A000194012102230224022502260227022AB0
:10505A0002B300B4006F0070009F01CB019F02A051
:10506A000240227B1304F103760365047E049E0446
:00000001FF
